:10000000CBC20000FAC20000F8C20000F6C2000035
:10001000F4C20000F2C20000F0C20000EEC2000014
:10002000ECC20000EAC20000E8C20000E6C2000024
:10003000E4C20000E2C20000E0C20000DEC2000034
:10004000DCC20000DAC20000D8C20000D6C2000044
:10005000D4C20000D2C20000D0C200000C94FC1038
:10006000CCC200000C94FB130C943114C6C20000E7
:10007000C4C20000C2C20000C0C20000BEC2000074
:10008000BCC20000BAC20000B8C20000B6C2000084
:10009000B4C20000B2C20000B0C200000C94CE0F87
:1000A000ACC20000AAC20000A8C20000A6C20000A4
:1000B000A4C20000A2C20000A0C200009EC20000B4
:1000C0009CC200009AC2000098C2000096C20000C4
:1000D00094C2000092C2000090C200008EC20000D4
:1000E0008CC20000E311E611D511D911DF111D12E8
:1000F000EA11EE11F411F811FC11021206120A12A3
:100100001D12101214121812496E74657274656310
:10011000686E6F204C6F6E6700496E74657274650F
:1001200063686E6F0064656661756C7400637573F7
:10013000746F6D0064656661756C74006E6F6E65DA
:1001400000656E636F6465723A2000637573746F47
:100150006D0064656661756C74006E6F6E65006439
:1001600065636F6465723A20005B505D2070726F4A
:10017000746F636F6C3A20005B525D20726570652E
:1001800061743A20006F6E006F6666005B445D200C
:100190006465627567206D6F64653A20002D2D2DB2
:1001A0002D2D206F746865722053657474696E67B5
:1001B00073202D2D2D2D2D0A007278007478006982
:1001C000646C6500726164696F3A200020687A008F
:1001D0006672657175656E6379206875623A200094
:1001E0002062617564006461746120726174653AB3
:1001F000200020687A0062616E6477696474683AEE
:100200002000666D00616D006D6F64756C617469CE
:100210006F6E3A200020687A005B465D206672654A
:100220007175656E63793A20002D2D2D2D2D20528C
:10023000462054756E696E6773202D2D2D2D2D0A65
:1002400000207365636F6E643A0020666972737490
:100250003A002846697273745365636F6E64206553
:1002600078616D706C653A613D3132290A002D2D3F
:100270002D2D2D2053657175656E636573202D2DB1
:100280002D2D2D0A00206475726174696F6E3A001D
:10029000206D61783A00206D696E3A00286D696EB4
:1002A0003A6D61783A6475726174696F6E20657831
:1002B000616D706C653A313D3130303A3230303AF0
:1002C000313530290A002D2D2D2D2D2053796D62C9
:1002D0006F6C73202D2D2D2D2D0A00203C3E2050BB
:1002E000203D203220463D34333330303030303002
:1002F000207B3130663030303030303066307D0A2F
:100300000034292053656E6420496E7465727465EB
:1003100063686E6F206F6E20343333206D687A20EF
:10032000616E6420726563697665206166746572CA
:100330002073656E640A00202020203C2050203D60
:100340002032200A003329205265636976652049EE
:100350006E746572746563686E6F206F6E203433DF
:1003600033206D687A202864656661756C74206638
:1003700072657175656E6379290A00202020203E20
:10038000207B3130663030303030303066307D0A9E
:1003900000322920646F207468652053616D6520E8
:1003A00061667465722063616C6C20666972737437
:1003B000206578616D706C65200A00202020203E49
:1003C0002050203D203220463D3433333030303011
:1003D000303020523D3520207B3130663030303097
:1003E00030303066307D0A0031292053656E64203C
:1003F000496E746572746563686E6F28503D32296A
:10040000206F6E20343333206D687A2072657065FA
:1004100061742035207769746820636F64652031CA
:1004200030663030303030303066300A002D2D2DBF
:100430002D2D204578616D706C65733A202D2D2D22
:100440002D2D0A00233020726177206D6F64650ABC
:10045000002D2D2D2D2D20417661696C69626C6512
:100460002050726F746F636F6C733A202D2D2D2D99
:100470002D0A0000000A0B02090C0D0E08070304E8
:10048000010000000000000000000000000000006B
:10049000000000000000000000000000000000124A
:1004A000111000000000000000000000000000002B
:1004B00000000000000000000001021020200808D9
:1004C00010204010204080020102010804020101B6
:1004D000020408102040808040201008040201809F
:1004E00004020180402010080402010804020101F6
:1004F00002040810204080010204081020408005FA
:10050000050505070508080808020202020A0A088C
:1005100008040404040101010101010101030303B2
:100520000303030303040707070C0C0C0C0C0C0C4F
:100530000C0202020206060606060606060B0B0B56
:100540000B0B0B0B0B000020002300260029002CB6
:10055000002F003200000100000301060109010024
:10056000002200250028002B002E0031003400025C
:10057000010000050108010B0100002100240027F3
:10058000002A002D003000330001010000040107A3
:10059000010A0100A20F631411241FBECFEFD1E2A4
:1005A000DEBFCDBF00E00CBF12E0A0E0B2E0E2EFA2
:1005B000FEE200E00BBF02C007900D92A233B1072C
:1005C000D9F728E0A2E3B2E001C01D92A837B20734
:1005D000E1F715E0C8E9D5E000E006C0229701097F
:1005E000FE010BBF0E942517C439D10780E0080720
:1005F000A9F70E9499150C94771702CDE0913A0261
:10060000F0913B02908180913C0280958923808308
:10061000089561E083E30E941E1261E083E30E947B
:10062000571261E081E30E941E1260E081E30E94A4
:10063000571261E087E20E941E1261E087E20E9489
:10064000571261E085E20E941E1260E085E20E947E
:10065000571261E083E20E941E1260E083E20E9472
:100660001E1283E290E090934102809340029093A7
:100670003F0280933E0262E275E0FB018491809329
:100680003D024CED54E0FA01849180933C0280914C
:100690003D0290E0880F991F9C01215A3A4FF901C1
:1006A000A591B491B0933B02A0933A028B5B9A4F11
:1006B000FC01259134913093390220933802FB01DB
:1006C000649160933702FA0144914093360280911D
:1006D000370290E0880F991FFC01E15AFA4F2591EB
:1006E000349130933502209334028B5B9A4FFC0196
:1006F000859194919093330280933202089561E042
:10070000809140020C941E1260E080913E020C9495
:100710001E12811101C072CFE0913A02F0913B02AA
:10072000808190913C02892B80830895682F8BED06
:1007300097E00C94E4144F925F926F927F928F92A5
:100740009F92AF92BF92CF92DF92EF92FF924B01B6
:100750005C016B017C0197FF07C0CC24DD2476018E
:10076000C61AD70AE80AF90A0E9446112B013C0171
:100770008091420290914302A0914402B0914502BF
:10078000A3019201281B390B4A0B5B0B2C153D056D
:100790004E055F0520F4C21AD30AE40AF50AB7FE33
:1007A00002C02CDF02C081E0B4DF30E4C31632E4C3
:1007B000D3063FE0E306F104A8F40E9446116093DB
:1007C0004202709343028093440290934502DC01FD
:1007D000CB0184199509A609B709C816D906EA06F6
:1007E000FB0658F7FF90EF90DF90CF90BF90AF904F
:1007F0009F908F907F906F905F904F900895CF93D0
:10080000DF93CDB7DEB7DF91CF9108952F923F925E
:100810004F925F926F927F928F929F92AF92BF9210
:10082000CF92DF92EF92FF920F931F93CF93DF93BC
:10083000CDB7DEB763970FB6F894DEBF0FBECDBF5E
:10084000409089044B8A60919C04509076045E86A7
:1008500070919F0480909A0490909B04209183044F
:100860003091840440918504509186042F87388B01
:10087000498B5A8BE0909604F0909704009198046D
:100880001091990480917F0490918004A09181043B
:10089000B091820489839A83AB83BC83A090920435
:1008A000B0909304C0909404D090950440907B0441
:1008B00050907C0460907D0470907E044D825E8236
:1008C0006F82788680918E0490918F04A09190041D
:1008D000B09191042091770430917804409179048B
:1008E00050917A0429873A874B875C8740908A0425
:1008F00050908B0460908C0470908D043B8936136B
:100900002FC04E8547132CC0E0918704F0918804D6
:10091000E815F90529F52F85388949895A892E1551
:100920003F0540075107E1F429813A814B815C8101
:100930002A153B054C055D0599F42D813E814F81BB
:100940005885281739074A075B0751F429853A85E6
:100950004B855C85241535054605570509F461C0AE
:10096000272E332427FC3094F1E029853A854B85E6
:100970005C85241535054605570509F4F0E0FF931D
:10098000F1E02D813E814F815885281739074A07AC
:100990005B0709F4F0E0FF93F1E029813A814B8194
:1009A0005C812A153B054C055D0509F4F0E0FF93D9
:1009B000E1E02F85388949895A892E153F0540077E
:1009C000510709F4E0E0EF9321E0E0918704F09112
:1009D0008804E815F90509F420E02F93E1E03E854D
:1009E000371301C0E0E0EF9371E04B89461301C07B
:1009F00070E07F931F927F926F925F924F92BF93AE
:100A0000AF939F938F93E091AA04F091AB0494016C
:100A1000A10180E090E019950FB6F894DEBF0FBEFB
:100A2000CDBF80919C048093890480919F04809322
:100A3000760480919A0490919B049093880480930B
:100A400087048091960490919704A0919804B091A6
:100A500099048093830490938404A0938504B093B5
:100A600086048091920490919304A0919404B09193
:100A7000950480937F0490938004A0938104B093A5
:100A8000820480918E0490918F04A0919004B09183
:100A9000910480937B0490937C04A0937D04B09395
:100AA0007E0480918A0490918B04A0918C04B09173
:100AB0008D048093770490937804A0937904B09385
:100AC0007A0463960FB6F894DEBF0FBECDBFDF91F8
:100AD000CF911F910F91FF90EF90DF90CF90BF903B
:100AE000AF909F908F907F906F905F904F903F90CE
:100AF0002F900895E0910F05F09110051994CF9370
:100B0000DF93EC01FE018491882321F090E0F2DF75
:100B10002196F8CFDF91CF910895992787FD909581
:100B2000E9CF0895CF93DF932AE04EE452E00E948C
:100B30003817CEE4D2E08991882341F0992787FDC8
:100B40009095D8DF82E0CF36D807A9F7DF91CF9113
:100B50000895CF93DF93EC0180914D028823D9F063
:100B600083E290E0C7DF60919F04772767FD70956F
:100B7000872F972FD7DF80E290E0BCDFFE018491C2
:100B8000882321F090E0B6DF2196F8CF8AE090E04C
:100B9000DF91CF91AFCFDF91CF910895CF92DF92C8
:100BA000EF92FF92CF93DF9386EC92E0A8DF8CE97F
:100BB00092E0A5DFCFEBD4E0C12CD12C760180915F
:100BC000A104992787FD9095C816D9068CF58BE569
:100BD00090E090DFC701B601A5DF8DE590E08ADFE8
:100BE00086E992E08CDF68817981882777FD80959E
:100BF000982F98DF80E992E082DF6A817B818827E5
:100C000077FD8095982F8EDF85E892E078DF6C8104
:100C10007D81882777FD8095982F84DF8AE090E09A
:100C200069DF8FEFC81AD80AE80AF80A2896C7CFF2
:100C30008AE090E05FDF8EE692E061DF82E592E09D
:100C40005EDFC0EBD4E0E12CF12C8091A004992769
:100C500087FD9095E816F90624F58BE590E04ADFCC
:100C6000C7018F599F4F46DF8DE590E043DF8AE44F
:100C700092E045DF8881992787FD9095C0963ADFFD
:100C800081E492E03CDF8981992787FD9095C096A9
:100C900031DF8AE090E02EDF8FEFE81AF80A239622
:100CA000D4CF8AE090E026DF89E292E028DF89E174
:100CB00092E025DF609196047091970480919804EA
:100CC000909199042FDF85E192E019DF8AE090E0AE
:100CD00011DF88E092E013DF80919A0490919B04E9
:100CE000019719F485E092E00ADF80919A049091CF
:100CF0009B04029719F482E092E001DF8AE090E021
:100D0000F9DE86EF91E0FBDE60919204709193042E
:100D1000809194049091950405DF82EF91E0EFDEDD
:100D20008AE090E0E7DE86EE91E0E9DE60918E04F5
:100D300070918F048091900490919104F3DE80EE85
:100D400091E0DDDE8AE090E0D5DE80ED91E0D7DE57
:100D50008CEC91E0D4DE60918A0470918B048091D8
:100D60008C0490918D04DEDE8AE090E0C3DE84EC9A
:100D700091E0C5DE80919C04811103C08FEB91E06E
:100D8000BEDE80919C04813019F48CEB91E0B7DEDB
:100D900080919C04823019F489EB91E0B0DE8AE006
:100DA00090E0A8DE8AE090E0A5DE8DE991E0A7DE84
:100DB0008CE891E0A4DE80916F02811103C088E885
:100DC00091E09DDE80916F02813019F485E891E019
:100DD00096DE8AE090E08EDE88E791E090DE60911A
:100DE0009D0470919E04882777FD8095982F9ADE48
:100DF0008AE090E07FDE89E691E081DE60919F04E9
:100E0000772767FD7095872F972F8CDE8AE090E01B
:100E100071DE8FE591E073DE80914C02811103C099
:100E20008AE591E06CDE80914C02813019F482E514
:100E300091E065DE80914C02823019F48BE491E000
:100E40005EDE8AE090E056DE81E491E058DE80913B
:100E50004B02811103C08CE391E051DE80914B0283
:100E6000813019F484E391E04ADE80914B028230B4
:100E700019F48DE291E043DE8AE090E03BDE8AE007
:100E800090E0DF91CF91FF90EF90DF90CF9032CE46
:100E9000E091AE04F091AF0420919F048A3014F4E5
:100EA000805D01C0895A1994E091AC04F091AD04C1
:100EB00060919F041994AF92BF92CF92DF92EF920C
:100EC000FF920F931F93CF93DF93F82E6B01E42EC5
:100ED000C091A204C130E1F0C23049F0C11121C07B
:100EE0008093A3048FEF8093A40481E018C0AB012A
:100EF000662757FD6095762F8091A404C9DF809105
:100F0000A3048093A404F092A304C093A20409C094
:100F10008091A3048093A404F092A30482E08093C0
:100F2000A2040091A004112707FD10959091A2043E
:100F30008091A404A090A304CE2DDD27C7FDD095F9
:100F40002E2D33E02302A001112440555B4F60E0B9
:100F500070E020E030E0E12CF901EC0FFD1FE0171C
:100F6000F107ECF4DA01A60FB71FBC90BF1002C066
:100F7000EE24E394923071F4B8120CC01196AC9147
:100F8000AA1108C0A601662757FD6095762F8AE052
:100F90008E0F1DC02F5F3F4F6D5F7F4FDDCFE11084
:100FA0001BC0913039F4A601662757FD6095762F56
:100FB0008F2D0DC0923081F4EE24D7FCE094FE2CEE
:100FC000B701A60165DFB701A6018091A30460DF28
:100FD0001092A20480E000C0DF91CF911F910F9189
:100FE000FF90EF90DF90CF90BF90AF900895CF9398
:100FF000DF93683F2FE77207810591054CF4693054
:1010000020E872072FEF820792072CF0AB0105C092
:1010100048EF5FE702C048E050E820919F04222398
:1010200051F0A091A104BB27A7FDB095EFEBF4E030
:1010300020E030E00EC076DD80E290E0DF91CF91DD
:1010400059CDC081D181C417D5073CF02F5F3F4FE8
:1010500038962A173B07ACF30AC0C281D3814C17DC
:101060005D07A4F74681822FDF91CF9124CFDF91D6
:10107000CF910895CF92DF92EF92FF926B017C01A6
:1010800080916F02813019F4C701B601B0DFF7FC1F
:1010900005C0C114D104E104F10459F0E091110537
:1010A000F0911205C701B601FF90EF90DF90CF904D
:1010B0001994FF90EF90DF90CF900895CF93DF9336
:1010C000C82FE0EDE80FEA3080F488E0E89FF001F7
:1010D0001124E154FB4F648175816115710529F07C
:1010E000882777FD8095982FC5DF8FE98C0F863094
:1010F00070F5C7558C2F90E00A97EC01CC0FDD1FDF
:10110000C80FD91FC055DB4FE881EE2301F189815B
:101110008823E9F088E0E802F0011124E154FB4F54
:1011200064817581882777FD8095982FA3DFE981F9
:1011300088E0E802F0011124E154FB4F64817581DD
:10114000882777FD8095982FDF91CF9193CFDF91FE
:10115000CF910895B3CF0895803321F481E6AEDFB7
:1011600081E611C0813311F482E603C0863621F492
:1011700081E6A4DF82E607C08B3721F08D3721F4AA
:1011800083E39CDF85E39ADF80E008958B37910548
:1011900021F4109247021092460220919F042111DF
:1011A0000BC0BC01882777FD8095982FE091110531
:1011B000F0911205199501C077DE80914602909159
:1011C0004702019690934702809346020895109239
:1011D0009C0481E090E090939B0480939A04109289
:1011E0009604109297041092980410929904109209
:1011F0009204109293041092940410929504109209
:101200008E0410928F041092900410929104109208
:101210008A0410928B0410928C0410928D04109208
:101220009F041092A1041092A00490939E048093B6
:101230009D0410926F02109249021092480210927F
:101240007504109274021092A5041092A6041092D4
:10125000A7041092A8041092A904EFEBF4E0118205
:10126000108213821282158214821682389685E0CB
:10127000EF30F807A1F780E090E0FC01E055FB4F6C
:101280001082118203968F309105B9F70895AF92BD
:10129000BF92CF92DF92EF92FF920F931F9397DF4F
:1012A00080919C048093890480919F0480937604AC
:1012B00080919A0490919B04909388048093870472
:1012C0008091960490919704A0919804B09199040C
:1012D0008093830490938404A0938504B093860440
:1012E0008091920490919304A0919404B0919504FC
:1012F00080937F0490938004A0938104B093820430
:1013000080918E0490918F04A0919004B0919104EB
:1013100080937B0490937C04A0937D04B0937E041F
:1013200080918A0490918B04A0918C04B0918D04DB
:101330008093770490937804A0937904B0937A040F
:1013400081E08F938F938F938F938F938F938F934E
:101350008F931F921F921F921F921F921F921F9294
:101360001F92E091AA04F091AB04A12CB12C65016D
:10137000E12CF12C870120E030E040E050E060E01B
:1013800080E090E019958DB79EB740960FB6F8941F
:101390009EBF0FBE8DBF1F910F91FF90EF90DF900A
:1013A000CF90BF90AF9008957093100560930F0594
:1013B00090931205809311055093AB044093AA04B7
:1013C00066CFEFEBF4E021E030E082819381892B5E
:1013D00029F080819181892B09F0322F38962F5F77
:1013E0002B3099F73093A104E0EBF4E081E090E03A
:1013F0002081222319F021812111982F33968F5FAC
:101400008630B1F79093A0040895805398E0890244
:10141000F0011124E154FB4F3583248371836083F1
:1014200053834283CECFAF92BF92CF92DF92EF929F
:10143000FF921F93CF93DF9300D01F92CDB7DEB7FB
:10144000182F5B01882777FD8095982F29833A8391
:101450004B835C830E94D61529813A814B815C8144
:101460000E948A166B017C0120E030E0A9010E94F5
:10147000861618161CF4C701B60103C0C701B601D1
:1014800090580E94A315A501460F571FC501861B42
:10149000970BBC019501812F0F900F900F900F902B
:1014A000DF91CF911F91FF90EF90DF90CF90BF9091
:1014B000AF90ABCF90917402E92FFF27E7FDF09535
:1014C000EB58FD4F80839F5F909374020895CF93F4
:1014D000DF938BE790E00EDBC5E7D2E080917402EA
:1014E000992787FD90959E01255732402817390787
:1014F00034F48991992787FD9095FCDAEFCF8DE739
:1015000090E0F8DA8AE090E0DF91CF91F3CACF93D0
:10151000C82F853329F41092740281E080937504FA
:1015200080917504823009F447C02CF4882351F06F
:10153000813069F05BC0833009F44CC0843009F419
:1015400051C054C0C53309F051C081E015C080912D
:101550007402843011F480E2ADDF8091740289302E
:1015600011F480E2A7DF809174028C3011F480E2E4
:10157000A1DFC13621F482E08093750437C0C23602
:1015800011F483E0F9CFC333A1F410927504809174
:1015900074028F3059F580918202863611F08033C3
:1015A00029F580918302863611F08033F9F48FDFBC
:1015B0001DC0109274021AC0C13629F481E08093D4
:1015C000750480E30DC0C23689F481E08093750410
:1015D00086E606C0C23651F481E08093750481E34B
:1015E00069DF04C0C33311F41092750480E0CF9119
:1015F0000895E0917202F0917302809170029091CF
:101600007102E80FF91F80810895F3DF882351F0FC
:101610008091700290917102019690937102809373
:101620007002E7CF80E00895E4DF803211F4EDDF4F
:10163000FBCF0895DEDF803209F0E7DFF5DFD9CF99
:101640001F93CF93DF9300D01F92CDB7DEB7D1DFCA
:101650008D3219F4EFDF1FEF01C011E020E030E020
:10166000A90129833A834B835C83C3DF90ED980FF4
:1016700029813A814B815C819A30B8F029833A8381
:101680004B835C83D1DFA12FBB27A7FDB0952981B8
:101690003A814B815C810E941F170F900F900F9031
:1016A0000F90DF91CF911F910895992787FD909515
:1016B000C097AA2797FDA095BA2F280F391F4A1F58
:1016C0005B1F29833A834B835C839FDF92DF8053C8
:1016D00029813A814B815C818A3008F0C2CFAAE02F
:1016E000B0E00E9415179B01AC01BBCFFF920F9396
:1016F0001F93CF93DF93009170021091710279DFF5
:101700008B3709F039C0C0E0D0E080919D04909102
:101710009E04C817D90784F51093710200937002D4
:1017200068DF8B3739F58BE790E030DD6EDFE091D5
:101730007202F09173028091700290917102E80F31
:10174000F91FF0808F2D992787FD90951FDD8DE77C
:10175000F81651F080917002909171020196909369
:10176000710280937002E3CF44DF992787FD909543
:101770000DDD60DF2196C9CFDF91CF911F910F91D1
:10178000FF9008955DDF35DF8A3309F453DF58DFBA
:1017900030DF8A3309F44EDF53CFCF93C0919F04DB
:1017A000C230A9F0C33009F493C0C13009F011C1AF
:1017B0008DE895E09093AF048093AE048AEA98E0B8
:1017C0009093AD048093AC0485E291E000C123ECDA
:1017D00035EF48EA5EE368EE73E081E324DE23EC54
:1017E00035EF48EA5EE368E17CEF82E31CDE23EC40
:1017F00035EF48EA5EE36CE271E083E314DE23EC4C
:1018000035EF48EA5EE364ED7EEF84E30CDE80EFC3
:1018100098ED9093EC048093EB0480E599EC909321
:10182000E8048093E70480E998EE9093EA048093BB
:10183000E904C7DD83E08093B004C093B104C1DD47
:1018400081E08093B30484E08093B404BADD87E838
:101850009AE09093AF048093AE048CEA98E0909362
:10186000AD048093AC0481E090E090939B0480935E
:101870009A0480E49EE0AFECB9E1809396049093E3
:101880009704A0939804B093990480E092EEA4E0AA
:10189000B0E08093920490939304A0939404B09347
:1018A000950480EB94E0A0E0B0E080938E049093E8
:1018B0008F04A0939004B093910410928A04109224
:1018C0008B0410928C0410928D0489E191E07FC00A
:1018D00023EC35EF48EA5EE369EC74E081E3A3DDD5
:1018E00023EC35EF48EA5EE367E37BEF82E39BDDC1
:1018F00023EC35EF48EA5EE363E171E083E393DDD7
:1019000023EC35EF48EA5EE36DEE7EEF84E38BDD9A
:1019100080EF98ED9093EC048093EB0480E599ECD4
:101920009093E8048093E70480E998EE9093EA04AA
:101930008093E90446DDC093B00484E08093B10451
:1019400040DDC093B30482E08093B4043ADD87E8BD
:101950009AE09093AF048093AE048CEA98E0909361
:10196000AD048093AC0481E090E090939B0480935D
:101970009A0480E49EE0AFECB9E1809396049093E2
:101980009704A0939804B093990480E092EEA4E0A9
:10199000B0E08093920490939304A0939404B09346
:1019A000950480EB94E0A0E0B0E080938E049093E7
:1019B0008F04A0939004B093910410928A04109223
:1019C0008B0410928C0410928D0488E091E0CF91EA
:1019D000C0C8CF910895CF93DF931F92CDB7DEB7E4
:1019E0008983F5DB898180939F04D7DEEADC10923E
:1019F00074028091AE049091AF04009719F4109294
:101A00004C0208C08D58954011F481E001C082E07D
:101A100080934C028091AC049091AD04009719F42E
:101A200010924B0208C08A5A984011F481E001C01C
:101A300082E080934B020F90DF91CF910895CF9376
:101A400081E080934D0281E594E059D884E494E0EC
:101A500056D8C0E08C2FBFDFCF5FC436D9F78AE0FD
:101A600090E048D88DE294E04AD888EE93E047D8D9
:101A70008BEB93E044D88AE090E03CD881E993E096
:101A80003ED88BE793E03BD88AE090E033D885E4FA
:101A900093E035D887E393E032D88AE090E02AD803
:101AA00081E093E02CD88BED92E029D88AE090E099
:101AB00021D88AE090E01ED810924D02CF9108956F
:101AC0001F93CF93DF9390937302809372021092CF
:101AD0007102109270028DDD883411F4B0DF76C08F
:101AE0008C3411F45BD872C09FDD83DD8C3319F424
:101AF000A1DDD2E001C0D0E07CDD8E3339F411E00D
:101B0000D23009F010E096DDD1E001C010E08CDDAC
:101B100070DDC82F81361CF08B370CF109C0813481
:101B20001CF08B35E4F004C0803314F08A33BCF031
:101B3000D0939C040E940604D9DDDD2359F01130B6
:101B400021F482E080939C0407C080919C04813042
:101B500009F03CC010929C040E94060437C06ADD64
:101B600048DD8D3309F466DDC634E9F054F4C03342
:101B70007CF2CA3344F1C43459F662DD60936F02DB
:101B8000C7CFC235D1F03CF4C03509F0C1CF58DD24
:101B9000862F21DFBDCF8FE98C0F863008F0B8CFBC
:101BA0008C2FF0DDB5CF4CDD6093960470939704D5
:101BB0008093980490939904ABCF42DD70939E0478
:101BC00060939D04A5CF36DD35DDA2CF80E0DF91A7
:101BD000CF911F910895CF92DF92EF92FF920F93D2
:101BE0001F93CF93DF938C017B016A0180914A029E
:101BF000882351F0C8010E947A050D30110521F4A7
:101C00008AE090E00E947A05F0927302E0927202FC
:101C1000101611060CF044C00A30110509F440C03A
:101C2000C0914802D09149020D301105D9F480913C
:101C30009C04882331F0209721F410929C040E9488
:101C400006041092490210924802109271021092FA
:101C50007002209711F1809172029091730230DF2F
:101C6000CE0120C081E0C81AD108CC15DD05C4F42E
:101C7000CE0101969093490280934802CE0DDF1D5C
:101C80000883E0917202F091730280914802909172
:101C90004902E80FF91F108203C080E090E002C003
:101CA0008FEF9FEFDF91CF911F910F91FF90EF90FA
:101CB000DF90CF9008952F923F924F925F926F9254
:101CC0007F928F929F92AF92BF92CF92DF92EF92CC
:101CD000FF920F931F93CF93DF93CDB7DEB7279774
:101CE0000FB6F894DEBF0FBECDBF4C01362E3A01C1
:101CF0002901E982FA820B831C838D8D8D839E8D51
:101D00009E838F8D8F8328A0E9A0FAA01BA10CA130
:101D1000772767FD70954AE050E08BED97E0F2D6AB
:101D20009EA1992371F081E0381203C00E947F03C5
:101D300008C092E0391203C00E94840302C033201D
:101D4000A9F38CA58F938BA58F938AA58F9389A5D3
:101D50008F9388A58F938FA18F938EA18F938DA141
:101D60008F930F931F93FF92EF922F929F819F93D8
:101D70008E818F939D819F93E980FA800B811C81D6
:101D80009201A301632DC4010E94FF030FB6F894D2
:101D9000DEBF0FBECDBF27960FB6F894DEBF0FBED5
:101DA000CDBFDF91CF911F910F91FF90EF90DF900A
:101DB000CF90BF90AF909F908F907F906F905F90EB
:101DC0004F903F902F90089526E040E950ED63E05A
:101DD00070E08BED97E0AFD40E9409034BE55EE025
:101DE00066E973E08BE993E0DFDA82E0F4DD0C94DE
:101DF000060461E083E25BD360E083E258D38BEDBD
:101E000097E0A3D38F3FA9F348EC50E063E175E07E
:101E1000992787FD9095DFDEECCF8091420790E017
:101E200020914307821B91090895209143078091D7
:101E30004207281750F4E22FF0E0EC5BF84F808166
:101E400090E02F5F2093430708958FEF9FEF089551
:101E5000E091430780914207E81730F4F0E0EC5B33
:101E6000F84F808190E008958FEF9FEF08950895D7
:101E7000CF92DF92EF92FF920F931F93CF93DF9356
:101E80007C01CB018A0120911F07222389F0EB01FD
:101E90006B01C40ED51ECC15DD0561F06991D7012B
:101EA000ED91FC910190F081E02DC7011995F3CFE0
:101EB000642F4BD0C801DF91CF911F910F91FF90FC
:101EC000EF90DF90CF900895CF93DF931F92CDB71F
:101ED000DEB7698320911F072223D1F020912007CC
:101EE000203240F021E030E0FC013383228380E0A7
:101EF00090E014C080912107E82FF0E0EE5DF84FEC
:101F0000998190838F5F809321078093200704C07D
:101F100061E0CE01019619D081E090E00F90DF9151
:101F2000CF910895FC011382128248EE53E060E0E5
:101F300070E0448355836683778384E092E09183E5
:101F40008083089583E197E0EDCF613298F420918A
:101F5000D107243089F460938607FC0188E897E074
:101F6000DC012A2F281B261718F421912D93F9CF75
:101F700080E0089581E0089582E0089585ED8093E2
:101F8000BC008091BC0084FDFCCF1092D107089565
:101F900085EC8093BC001092D10708951F920F9298
:101FA0000FB60F9211240BB60F922F933F934F93BE
:101FB0005F936F937F938F939F93AF93BF93EF93B1
:101FC000FF938091B900887F803609F49DC070F539
:101FD000883209F45CC090F4803109F455C038F4BB
:101FE000882309F4F3C0883009F44EC0F2C0883168
:101FF00009F44DC0803209F45EC0EBC0803409F4AE
:1020000069C050F4803309F456C0883309F0E1C048
:1020100080936407BDDFDDC0803509F44FC088358B
:1020200009F45DC0883409F0D4C0D2C0883909F4FD
:10203000C3C0A8F4883709F467C038F4883609F4B7
:1020400063C0803709F460C0C4C0883809F4B4C0E4
:10205000803909F45FC0803809F0BBC05BC0803BA9
:1020600009F482C038F4803A09F466C0883A09F469
:102070007BC0AFC0803C09F4A3C0883C09F4A0C079
:10208000883B09F486C0A5C08091D00710C090910C
:10209000A9078091A807981770F5E091A90781E03A
:1020A0008E0F8093A907F0E0E655F84F808180936A
:1020B000BB0085EC82C0809364078AC0E091A907C9
:1020C00081E08E0F8093A9078091BB00F0E0E65578
:1020D000F84F80839091A9078091A8076AC0E0918A
:1020E000A90781E08E0F8093A9078091BB00F0E0E3
:1020F000E655F84F80838091CF07811169C081E058
:102100008093CE0784EA5DC083E08093D10710926C
:102110006507CFCF80916507803208F04DC0E09110
:10212000650781E08E0F809365078091BB00F0E02A
:10213000EA59F84F8083BDCF2BDF8091650780324D
:1021400030F4E0916507F0E0EA59F84F10826091B1
:10215000650770E0E091CA07F091CB0786E697E04B
:1021600019951092650735C084E08093D1071092CD
:10217000870710928607E091CC07F091CD0719955B
:1021800080918607811105C081E0809386071092B7
:102190008807E091870781E08E0F80938707F0E042
:1021A000E857F84F80818093BB009091870780911A
:1021B0008607981708F47DCF85E88093BC0009C096
:1021C00085EC8093BC001092D10703C01092640785
:1021D000D5DEFF91EF91BF91AF919F918F917F914C
:1021E0006F915F914F913F912F910F900BBE0F9088
:1021F0000FBE0F901F9018951F920F920FB60F925F
:1022000011242F933F938F939F93AF93BF9380910C
:10221000D3079091D407A091D507B091D6073091FC
:10222000D20723E0230F2D3720F40196A11DB11D05
:1022300005C026E8230F0296A11DB11D2093D207E9
:102240008093D3079093D407A093D507B093D60774
:102250008091D7079091D807A091D907B091DA075C
:102260000196A11DB11D8093D7079093D807A09325
:10227000D907B093DA07BF91AF919F918F913F91AA
:102280002F910F900FBE0F901F9018953FB7F894A5
:102290008091D7079091D807A091D907B091DA071C
:1022A00026B5A89B05C02F3F19F00196A11DB11DB1
:1022B0003FBF6627782F892F9A2F620F711D811DCE
:1022C000911D42E0660F771F881F991F4A95D1F72D
:1022D0000895789484B5826084BD84B5816084BD9E
:1022E00085B5826085BD85B5816085BDEEE6F0E08F
:1022F000808181608083E1E8F0E0108280818260EB
:102300008083808181608083E0E8F0E0808181606B
:102310008083E1EBF0E0808184608083E0EBF0E09B
:10232000808181608083E1E9F0E080818260808348
:10233000808181608083E0E9F0E08081816080833A
:10234000E1EAF0E080818260808380818160808327
:10235000E0EAF0E0808181608083E1E2F1E0808169
:1023600082608083808181608083E0E2F1E080810F
:1023700081608083EAE7F0E08081846080838081EF
:102380008260808380818160808380818068808397
:102390001092C100089590E0FC013197E231F105FF
:1023A00008F04BC0EE58FF4F3AC5809180008F7700
:1023B00003C0809180008F7D80938000089580917C
:1023C0008000877FF9CF84B58F7702C084B58F7D79
:1023D00084BD08958091B0008F7703C08091B000D4
:1023E0008F7D8093B0000895809190008F7707C013
:1023F000809190008F7D03C080919000877F8093B3
:10240000900008958091A0008F7707C08091A00070
:102410008F7D03C08091A000877F8093A0000895E6
:10242000809120018F7707C0809120018F7D03C0AC
:1024300080912001877F809320010895CF93DF93BF
:1024400090E0FC01E754FB4F2491FC01E150FB4F6D
:102450008491882349F190E0880F991FFC01E75887
:10246000FA4FA591B491815A9A4FFC01C591D4912C
:102470009FB7611108C0F8948C91209582238C93AA
:10248000888182230AC0623051F4F8948C91322FF3
:10249000309583238C938881822B888304C0F894A1
:1024A0008C91822B8C939FBFDF91CF9108950F93D6
:1024B0001F93CF93DF931F92CDB7DEB7282F30E065
:1024C000F901ED58FB4F8491F901E754FB4F14914A
:1024D000F901E150FB4F04910023C1F0882319F06A
:1024E000698359DF6981E02FF0E0EE0FFF1FE15AA9
:1024F000FA4FA591B4919FB7F8948C91611103C0E4
:102500001095812301C0812B8C939FBF0F90DF9189
:10251000CF911F910F910895FC01818D228D90E044
:10252000805C9F4F821B91098F7399270895FC014E
:10253000918D828D981731F0828DE80FF11D858D78
:1025400090E008958FEF9FEF0895FC01918D828DAB
:10255000981761F0828DDF01A80FB11D5D968C91F7
:10256000928D9F5F9F73928F90E008958FEF9FEF02
:1025700008958AE594E1892B39F080E090E0892B79
:1025800019F098D1811125C080E090E0892B41F0AD
:1025900080E090E0892B21F00E94000081111CC096
:1025A00080E090E0892B41F080E090E0892B21F0E1
:1025B0000E940000811113C080E090E0892BA1F0FF
:1025C00080E090E0892B81F00E94000081110AC018
:1025D00008950E940000D8CF0E940000E1CF0E9421
:1025E0000000EACF0C9400000895FC01848DDF0107
:1025F000A80FB11DA35ABF4F2C91848D90E0019676
:102600008F739927848FA689B7892C93A089B18964
:102610008C9180648C93938D848D981306C002886E
:10262000F389E02D80818F7D80830895CF93DF93A0
:10263000EC01888D8823C1F0EA89FB89808185FDC2
:1026400005C0A889B9898C9186FD0EC00FB607FC1C
:10265000F5CF808185FFF2CFA889B9898C9185FF5C
:10266000EDCFCE01C2DFE8CFDF91CF910895CF92B9
:10267000DF92FF920F931F93CF93DF931F92CDB7FB
:10268000DEB76C0181E0D60158968C9358975B9623
:102690009C915B975C968C915C97981307C05096C1
:1026A000ED91FC915197808185FD2DC0F601038D40
:1026B00010E00F5F1F4F0F731127F02EF601848D6E
:1026C000F81210C00FB607FCF9CFD6015096ED9165
:1026D000FC915197808185FFF1CFC601698385DF29
:1026E0006981ECCF838DE80FF11DE35AFF4F6083C2
:1026F000D6015B960C935B975296ED91FC915397A4
:10270000808180620CC0D6015696ED91FC9157975E
:1027100060835096ED91FC91519780818064808315
:1027200081E090E00F90DF91CF911F910F91FF908A
:10273000DF90CF900895BF92CF92DF92EF92FF92F9
:10274000CF93DF93EC016A017B01B22EE889F9890E
:1027500082E08083411581EE58076105710599F08B
:1027600060E079E08DE390E0A701960136D3215037
:1027700031094109510956954795379527952115F6
:1027800080E1380790F0E889F989108260E874E800
:102790008EE190E0A701960120D321503109410933
:1027A00051095695479537952795EC85FD853083DA
:1027B000EE85FF852083188EEC89FD89B082EA8939
:1027C000FB89808180618083EA89FB8980818860C0
:1027D0008083EA89FB89808180688083EA89FB891C
:1027E00080818F7D8083DF91CF91FF90EF90DF908C
:1027F000CF90BF9008951F920F920FB60F921124A1
:102800000BB60F922F938F939F93EF93FF93E091CB
:10281000EB07F091EC078081E091F107F091F2076E
:1028200082FD12C090818091F4078F5F8F73209199
:10283000F507821751F0E091F407F0E0E552F84F08
:10284000958F8093F40701C08081FF91EF919F9154
:102850008F912F910F900BBE0F900FBE0F901F9076
:1028600018951F920F920FB60F9211240BB60F926C
:102870002F933F934F935F936F937F938F939F9388
:10288000AF93BF93EF93FF938BED97E0AEDEFF9195
:10289000EF91BF91AF919F918F917F916F915F91D8
:1028A0004F913F912F910F900BBE0F900FBE0F9045
:1028B0001F9018958BED97E02FDE21E0892B09F40E
:1028C00020E0822F08951092DE071092DD0788EE37
:1028D00093E0A0E0B0E08093DF079093E007A0933F
:1028E000E107B093E20784E192E09093DC078093E4
:1028F000DB0785EC90E09093E8078093E70784EC92
:1029000090E09093EA078093E90780EC90E0909341
:10291000EC078093EB0781EC90E09093EE078093B7
:10292000ED0782EC90E09093F0078093EF0786EC40
:1029300090E09093F2078093F1071092F4071092C1
:10294000F5071092F6071092F7070895CF92DF92DD
:10295000EF92FF920F931F93CF93DF937C016A0155
:10296000EB0100E010E00C151D0571F06991D70135
:10297000ED91FC910190F081E02DC7011995892B13
:1029800019F00F5F1F4FEFCFC801DF91CF911F915B
:102990000F91FF90EF90DF90CF9008956115710532
:1029A00081F0DB010D900020E9F7AD0141505109A4
:1029B000461B570BDC01ED91FC910280F381E02D69
:1029C000199480E090E00895DC01ED91FC91019074
:1029D000F081E02D199460E272E0E0CF8F929F9237
:1029E000AF92BF92DF92EF92FF920F931F93CF931C
:1029F000DF93CDB7DEB7A1970FB6F894DEBF0FBE59
:102A0000CDBF7C01F42FD52ECB0119A2223008F4C2
:102A10002AE08E010F5D1F4F822E912CA12CB12C2C
:102A20006F2F7D2DA5019401D8D1F22FD32ECA018D
:102A3000015011096A3014F4E0E301C0E7E3E60F46
:102A4000D801EC93232B242B252B51F7B801C70178
:102A5000A5DFA1960FB6F894DEBF0FBECDBFDF9104
:102A6000CF911F910F91FF90EF90DF90BF90AF90AB
:102A70009F908F900895CF92DF92EF92FF920F93E5
:102A80001F93CF93DF93EC016A017B012115310580
:102A900079F4E881F9810190F081E02D642FDF91D4
:102AA000CF911F910F91FF90EF90DF90CF901994ED
:102AB0002A303105D9F477FF18C06DE285DF8C012B
:102AC00044275527BA014C195D096E097F092AE090
:102AD000CE0184DF800F911FDF91CF911F910F9165
:102AE000FF90EF90DF90CF9008952AE0B701A60104
:102AF000CE01DF91CF911F910F91FF90EF90DF906A
:102B0000CF906CCF0F931F93CF93DF93EC019A017B
:102B1000AB01662757FD6095762FADDF8C01CE01A6
:102B20005ADF800F911FDF91CF911F910F91089570
:102B30000895CFDBFDDF48D9C9EBD2E15AD9209700
:102B4000E9F317DDFBCF04D06894B111D9C0089523
:102B5000BCD088F09F5790F0B92F9927B751A0F0BB
:102B6000D1F0660F771F881F991F1AF0BA95C9F721
:102B700012C0B13081F0C3D0B1E00895C0C0672F5A
:102B8000782F8827B85F39F0B93FCCF386957795D1
:102B90006795B395D9F73EF49095809570956195BA
:102BA0007F4F8F4F9F4F0895E89409C097FB3EF4E5
:102BB00090958095709561957F4F8F4F9F4F99238A
:102BC000A9F0F92F96E9BB279395F6958795779508
:102BD0006795B795F111F8CFFAF4BB0F11F460FFC8
:102BE0001BC06F5F7F4F8F4F9F4F16C0882311F020
:102BF00096E911C0772321F09EE8872F762F05C034
:102C0000662371F096E8862F70E060E02AF09A95CE
:102C1000660F771F881FDAF7880F9695879597F9C3
:102C20000895990F0008550FAA0BE0E8FEEF16165D
:102C30001706E807F907C0F012161306E407F507B0
:102C400098F0621B730B840B950B39F40A2661F024
:102C5000232B242B252B21F408950A2609F4A140C7
:102C6000A6958FEF811D811D089597F99F6780E8D4
:102C700070E060E008959FEF80EC089500240A94CE
:102C80001616170618060906089500240A94121647
:102C90001306140605060895092E0394000C11F47A
:102CA000882352F0BB0F40F4BF2B11F460FF04C027
:102CB0006F5F7F4F8F4F9F4F089557FD9058440F80
:102CC000551F59F05F3F71F04795880F97FB991F8B
:102CD00061F09F3F79F08795089512161306140648
:102CE000551FF2CF4695F1DF08C0161617061806D5
:102CF000991FF1CF86957105610508940895E894B0
:102D0000BB2766277727CB0197F908958ADF08F458
:102D10008FEF08950BD0C0CFB1DF28F0B6DF18F0E9
:102D2000952309F0A2CFA7CF1124EACFC6DFA0F3E5
:102D3000959FD1F3950F50E0551F629FF001729F50
:102D4000BB27F00DB11D639FAA27F00DB11DAA1F6F
:102D5000649F6627B00DA11D661F829F2227B00DBC
:102D6000A11D621F739FB00DA11D621F839FA00D47
:102D7000611D221F749F3327A00D611D231F849F97
:102D8000600D211D822F762F6A2F11249F575040EE
:102D90008AF0E1F088234AF0EE0FFF1FBB1F661F89
:102DA000771F881F91505040A9F79E3F510570F042
:102DB0005CCFA6CF5F3FECF3983EDCF3869577952A
:102DC0006795B795F795E7959F5FC1F7FE2B880F3D
:102DD000911D9695879597F90895A1E21A2EAA1B41
:102DE000BB1BFD010DC0AA1FBB1FEE1FFF1FA217BB
:102DF000B307E407F50720F0A21BB30BE40BF50BB8
:102E0000661F771F881F991F1A9469F76095709540
:102E1000809590959B01AC01BD01CF010895EE0F07
:102E2000FF1F0590F491E02D199413D0A59F900DEC
:102E3000B49F900DA49F800D911D11240895B7FF9C
:102E4000F4CFF3DF821B930B08950790F691E02DEA
:102E50001994A29FB001B39FC001A39F700D811D63
:102E60001124911DB29F700D811D1124911D089593
:102E7000BB272A3051F4992342F4BDE29095809506
:102E8000709561957F4F8F4F9F4F01C0BB27FA010F
:102E9000A62F6217710581059105330B30FB66F093
:102EA000AA27660F771F881F991FAA1FA21710F065
:102EB000A21B63953850A9F7A05DAA3308F0A95D5D
:102EC000A19336F7B111B1931082CA0100C0DC01A1
:102ED000FC01672F71917723E1F7329704C07C9151
:102EE0006D9370836291AE17BF07C8F30895F8948D
:022EF000FFCF12
:102EF20000000000640F380F0D0F150F280F370F59
:102F0200000000003713A6148C12A5129712161394
:102F12000D0A006E616E00696E66006F7666002EA5
:022F22000000AD
:00000001FF
